{
    "_format": "hh-sol-artifact-1",
    "contractName": "Wallet",
    "sourceName": "contracts/Wallet.sol",
    "abi": [
        {
            "inputs": [],
            "stateMutability": "nonpayable",
            "type": "constructor"
        },
        {
            "inputs": [],
            "name": "aaveLendingPoolAddr",
            "outputs": [
                {
                    "internalType": "address",
                    "name": "",
                    "type": "address"
                }
            ],
            "stateMutability": "view",
            "type": "function"
        },
        {
            "inputs": [
                {
                    "internalType": "address",
                    "name": "assetAddress",
                    "type": "address"
                },
                {
                    "internalType": "uint256",
                    "name": "amount",
                    "type": "uint256"
                }
            ],
            "name": "aave_deposit",
            "outputs": [],
            "stateMutability": "nonpayable",
            "type": "function"
        },
        {
            "inputs": [
                {
                    "internalType": "address",
                    "name": "assetAddress",
                    "type": "address"
                },
                {
                    "internalType": "uint256",
                    "name": "amount",
                    "type": "uint256"
                }
            ],
            "name": "aave_withdraw",
            "outputs": [],
            "stateMutability": "nonpayable",
            "type": "function"
        },
        {
            "inputs": [
                {
                    "internalType": "address",
                    "name": "_tokenA",
                    "type": "address"
                },
                {
                    "internalType": "address",
                    "name": "_tokenB",
                    "type": "address"
                },
                {
                    "internalType": "uint256",
                    "name": "_amountA",
                    "type": "uint256"
                },
                {
                    "internalType": "uint256",
                    "name": "_amountB",
                    "type": "uint256"
                }
            ],
            "name": "addLiquidity",
            "outputs": [],
            "stateMutability": "nonpayable",
            "type": "function"
        },
        {
            "inputs": [],
            "name": "owner",
            "outputs": [
                {
                    "internalType": "address payable",
                    "name": "",
                    "type": "address"
                }
            ],
            "stateMutability": "view",
            "type": "function"
        },
        {
            "inputs": [],
            "name": "poolFee",
            "outputs": [
                {
                    "internalType": "uint24",
                    "name": "",
                    "type": "uint24"
                }
            ],
            "stateMutability": "view",
            "type": "function"
        },
        {
            "inputs": [
                {
                    "internalType": "address",
                    "name": "_tokenA",
                    "type": "address"
                },
                {
                    "internalType": "address",
                    "name": "_tokenB",
                    "type": "address"
                }
            ],
            "name": "removeLiquidity",
            "outputs": [],
            "stateMutability": "nonpayable",
            "type": "function"
        },
        {
            "inputs": [
                {
                    "internalType": "uint256",
                    "name": "amountIn",
                    "type": "uint256"
                },
                {
                    "internalType": "address",
                    "name": "originalToken",
                    "type": "address"
                },
                {
                    "internalType": "address",
                    "name": "newToken",
                    "type": "address"
                }
            ],
            "name": "swapExactInputSingle",
            "outputs": [
                {
                    "internalType": "uint256",
                    "name": "amountOut",
                    "type": "uint256"
                }
            ],
            "stateMutability": "nonpayable",
            "type": "function"
        },
        {
            "inputs": [],
            "name": "swapRouter",
            "outputs": [
                {
                    "internalType": "contract ISwapRouter",
                    "name": "",
                    "type": "address"
                }
            ],
            "stateMutability": "view",
            "type": "function"
        },
        {
            "inputs": [
                {
                    "internalType": "address",
                    "name": "token",
                    "type": "address"
                },
                {
                    "internalType": "address",
                    "name": "recipient",
                    "type": "address"
                },
                {
                    "internalType": "uint256",
                    "name": "amount",
                    "type": "uint256"
                }
            ],
            "name": "transfer",
            "outputs": [],
            "stateMutability": "nonpayable",
            "type": "function"
        },
        {
            "inputs": [
                {
                    "internalType": "uint256",
                    "name": "amount",
                    "type": "uint256"
                },
                {
                    "internalType": "address",
                    "name": "recipient",
                    "type": "address"
                }
            ],
            "name": "withdraw",
            "outputs": [],
            "stateMutability": "nonpayable",
            "type": "function"
        },
        {
            "stateMutability": "payable",
            "type": "receive"
        }
    ],
    "bytecode": "0x608060405234801561001057600080fd5b50600080546001600160a01b0319163317905561132f806100326000396000f3fe6080604052600436106100bf5760003560e01c80638da5cb5b11610074578063c31c9c071161004e578063c31c9c07146101dc578063cf6c62ea146101f1578063db42c44d14610211576100c6565b80638da5cb5b146101875780639cf38f7c1461019c578063beabacc8146101bc576100c6565b8063089fe6aa116100a5578063089fe6aa1461010d5780633c75999f146101385780634ce4dca51461015a576100c6565b8062f714ce146100cb5780630599d5f2146100ed576100c6565b366100c657005b600080fd5b3480156100d757600080fd5b506100eb6100e6366004610f6f565b610231565b005b3480156100f957600080fd5b506100eb610108366004610f0c565b6102d3565b34801561011957600080fd5b5061012261041b565b60405161012f91906112e4565b60405180910390f35b34801561014457600080fd5b5061014d610421565b60405161012f9190611024565b34801561016657600080fd5b5061017a610175366004610f93565b610439565b60405161012f91906112f4565b34801561019357600080fd5b5061014d610558565b3480156101a857600080fd5b506100eb6101b7366004610e4f565b610574565b3480156101c857600080fd5b506100eb6101d7366004610e87565b610821565b3480156101e857600080fd5b5061014d610958565b3480156101fd57600080fd5b506100eb61020c366004610ec7565b610970565b34801561021d57600080fd5b506100eb61022c366004610f0c565b610baa565b60005473ffffffffffffffffffffffffffffffffffffffff16331461028b576040517f08c379a000000000000000000000000000000000000000000000000000000000815260040161028290611231565b60405180910390fd5b60405173ffffffffffffffffffffffffffffffffffffffff82169083156108fc029084906000818181858888f193505050501580156102ce573d6000803e3d6000fd5b505050565b6040517f095ea7b300000000000000000000000000000000000000000000000000000000815273ffffffffffffffffffffffffffffffffffffffff83169063095ea7b39061033b90738dff5e27ea6b7ac08ebfdf9eb090f32ee9a30fcf90859060040161110f565b602060405180830381600087803b15801561035557600080fd5b505af1158015610369573d6000803e3d6000fd5b505050506040513d601f19601f8201168201806040525081019061038d9190610f37565b506040517fe8eda9df000000000000000000000000000000000000000000000000000000008152738dff5e27ea6b7ac08ebfdf9eb090f32ee9a30fcf9063e8eda9df906103e590859085903090600090600401611165565b600060405180830381600087803b1580156103ff57600080fd5b505af1158015610413573d6000803e3d6000fd5b505050505050565b610bb881565b738dff5e27ea6b7ac08ebfdf9eb090f32ee9a30fcf81565b600061045a8373e592427a0aece92de3edee1f18e0157c0586156486610c50565b604080516101008101825273ffffffffffffffffffffffffffffffffffffffff808616825284166020820152610bb88183015230606082015242608082015260a08101869052600060c0820181905260e082015290517f414bf38900000000000000000000000000000000000000000000000000000000815273e592427a0aece92de3edee1f18e0157c058615649063414bf389906104fd908490600401611268565b602060405180830381600087803b15801561051757600080fd5b505af115801561052b573d6000803e3d6000fd5b505050506040513d601f19601f8201168201806040525081019061054f9190610f57565b95945050505050565b60005473ffffffffffffffffffffffffffffffffffffffff1681565b6040517fe6a43905000000000000000000000000000000000000000000000000000000008152600090735757371414417b8c6caad45baef941abc7d3ab329063e6a43905906105c99086908690600401611045565b60206040518083038186803b1580156105e157600080fd5b505afa1580156105f5573d6000803e3d6000fd5b505050506040513d601f19601f820116820180604052508101906106199190610e2c565b905060008173ffffffffffffffffffffffffffffffffffffffff166370a08231306040518263ffffffff1660e01b81526004016106569190611024565b60206040518083038186803b15801561066e57600080fd5b505afa158015610682573d6000803e3d6000fd5b505050506040513d601f19601f820116820180604052508101906106a69190610f57565b6040517f095ea7b300000000000000000000000000000000000000000000000000000000815290915073ffffffffffffffffffffffffffffffffffffffff83169063095ea7b3906107119073a5e0829caced8ffdd4de3c43696c57f7d7a678ff90859060040161110f565b602060405180830381600087803b15801561072b57600080fd5b505af115801561073f573d6000803e3d6000fd5b505050506040513d601f19601f820116820180604052508101906107639190610f37565b506040517fbaa2abde000000000000000000000000000000000000000000000000000000008152600090819073a5e0829caced8ffdd4de3c43696c57f7d7a678ff9063baa2abde906107c69089908990889060019081903090429060040161106c565b6040805180830381600087803b1580156107df57600080fd5b505af11580156107f3573d6000803e3d6000fd5b505050506040513d601f19601f820116820180604052508101906108179190610fd4565b5050505050505050565b6000811161085b576040517f08c379a00000000000000000000000000000000000000000000000000000000081526004016102829061119f565b60005473ffffffffffffffffffffffffffffffffffffffff1633146108ac576040517f08c379a0000000000000000000000000000000000000000000000000000000008152600401610282906111d4565b6040517fa9059cbb00000000000000000000000000000000000000000000000000000000815273ffffffffffffffffffffffffffffffffffffffff84169063a9059cbb90610900908590859060040161110f565b602060405180830381600087803b15801561091a57600080fd5b505af115801561092e573d6000803e3d6000fd5b505050506040513d601f19601f820116820180604052508101906109529190610f37565b50505050565b73e592427a0aece92de3edee1f18e0157c0586156481565b6040517f095ea7b300000000000000000000000000000000000000000000000000000000815273ffffffffffffffffffffffffffffffffffffffff85169063095ea7b3906109d89073a5e0829caced8ffdd4de3c43696c57f7d7a678ff90869060040161110f565b602060405180830381600087803b1580156109f257600080fd5b505af1158015610a06573d6000803e3d6000fd5b505050506040513d601f19601f82011682018060405250810190610a2a9190610f37565b506040517f095ea7b300000000000000000000000000000000000000000000000000000000815273ffffffffffffffffffffffffffffffffffffffff84169063095ea7b390610a939073a5e0829caced8ffdd4de3c43696c57f7d7a678ff90859060040161110f565b602060405180830381600087803b158015610aad57600080fd5b505af1158015610ac1573d6000803e3d6000fd5b505050506040513d601f19601f82011682018060405250810190610ae59190610f37565b506040517fe8e337000000000000000000000000000000000000000000000000000000000081526000908190819073a5e0829caced8ffdd4de3c43696c57f7d7a678ff9063e8e3370090610b4c908a908a908a908a906001908190309042906004016110b9565b606060405180830381600087803b158015610b6657600080fd5b505af1158015610b7a573d6000803e3d6000fd5b505050506040513d601f19601f82011682018060405250810190610b9e9190610ff7565b50505050505050505050565b6040517f69328dec000000000000000000000000000000000000000000000000000000008152738dff5e27ea6b7ac08ebfdf9eb090f32ee9a30fcf906369328dec90610bfe90859085903090600401611135565b602060405180830381600087803b158015610c1857600080fd5b505af1158015610c2c573d6000803e3d6000fd5b505050506040513d601f19601f820116820180604052508101906102ce9190610f57565b6040805173ffffffffffffffffffffffffffffffffffffffff8481166024830152604480830185905283518084039091018152606490920183526020820180517bffffffffffffffffffffffffffffffffffffffffffffffffffffffff167f095ea7b3000000000000000000000000000000000000000000000000000000001781529251825160009485949389169392918291908083835b60208310610d2557805182527fffffffffffffffffffffffffffffffffffffffffffffffffffffffffffffffe09092019160209182019101610ce8565b6001836020036101000a0380198251168184511680821785525050505050509050019150506000604051808303816000865af19150503d8060008114610d87576040519150601f19603f3d011682016040523d82523d6000602084013e610d8c565b606091505b5091509150818015610dba575080511580610dba5750808060200190516020811015610db757600080fd5b50515b610e2557604080517f08c379a000000000000000000000000000000000000000000000000000000000815260206004820152600260248201527f5341000000000000000000000000000000000000000000000000000000000000604482015290519081900360640190fd5b5050505050565b600060208284031215610e3d578081fd5b8151610e48816112fd565b9392505050565b60008060408385031215610e61578081fd5b8235610e6c816112fd565b91506020830135610e7c816112fd565b809150509250929050565b600080600060608486031215610e9b578081fd5b8335610ea6816112fd565b92506020840135610eb6816112fd565b929592945050506040919091013590565b60008060008060808587031215610edc578081fd5b8435610ee7816112fd565b93506020850135610ef7816112fd565b93969395505050506040820135916060013590565b60008060408385031215610f1e578182fd5b8235610f29816112fd565b946020939093013593505050565b600060208284031215610f48578081fd5b81518015158114610e48578182fd5b600060208284031215610f68578081fd5b5051919050565b60008060408385031215610f81578182fd5b823591506020830135610e7c816112fd565b600080600060608486031215610fa7578283fd5b833592506020840135610fb9816112fd565b91506040840135610fc9816112fd565b809150509250925092565b60008060408385031215610fe6578182fd5b505080516020909101519092909150565b60008060006060848603121561100b578283fd5b8351925060208401519150604084015190509250925092565b73ffffffffffffffffffffffffffffffffffffffff91909116815260200190565b73ffffffffffffffffffffffffffffffffffffffff92831681529116602082015260400190565b73ffffffffffffffffffffffffffffffffffffffff9788168152958716602087015260408601949094526060850192909252608084015290921660a082015260c081019190915260e00190565b73ffffffffffffffffffffffffffffffffffffffff9889168152968816602088015260408701959095526060860193909352608085019190915260a084015290921660c082015260e08101919091526101000190565b73ffffffffffffffffffffffffffffffffffffffff929092168252602082015260400190565b73ffffffffffffffffffffffffffffffffffffffff93841681526020810192909252909116604082015260600190565b73ffffffffffffffffffffffffffffffffffffffff948516815260208101939093529216604082015261ffff909116606082015260800190565b6020808252818101527f43616e6e6f74207472616e736665722030206f72206c65737320746f6b656e73604082015260600190565b60208082526022908201527f4f6e6c7920746865206f776e65722063616e207472616e7366657220746f6b6560408201527f6e73000000000000000000000000000000000000000000000000000000000000606082015260800190565b6020808252600d908201527f4d757374206265204f776e657200000000000000000000000000000000000000604082015260600190565b60006101008201905073ffffffffffffffffffffffffffffffffffffffff80845116835280602085015116602084015262ffffff60408501511660408401528060608501511660608401526080840151608084015260a084015160a084015260c084015160c08401528060e08501511660e08401525092915050565b62ffffff91909116815260200190565b90815260200190565b73ffffffffffffffffffffffffffffffffffffffff8116811461131f57600080fd5b5056fea164736f6c6343000706000a",
    "linkReferences": {},
    "deployedLinkReferences": {}
}