{
  "_format": "hh-sol-artifact-1",
  "contractName": "Wallet",
  "sourceName": "contracts/Wallet.sol",
  "abi": [
    {
      "inputs": [],
      "stateMutability": "nonpayable",
      "type": "constructor"
    },
    {
      "inputs": [],
      "name": "aaveLendingPoolAddr",
      "outputs": [
        {
          "internalType": "address",
          "name": "",
          "type": "address"
        }
      ],
      "stateMutability": "view",
      "type": "function"
    },
    {
      "inputs": [
        {
          "internalType": "address",
          "name": "assetAddress",
          "type": "address"
        },
        {
          "internalType": "uint256",
          "name": "amount",
          "type": "uint256"
        }
      ],
      "name": "aave_deposit",
      "outputs": [],
      "stateMutability": "nonpayable",
      "type": "function"
    },
    {
      "inputs": [
        {
          "internalType": "address",
          "name": "assetAddress",
          "type": "address"
        },
        {
          "internalType": "uint256",
          "name": "amount",
          "type": "uint256"
        }
      ],
      "name": "aave_withdraw",
      "outputs": [],
      "stateMutability": "nonpayable",
      "type": "function"
    },
    {
      "inputs": [
        {
          "internalType": "address",
          "name": "_tokenA",
          "type": "address"
        },
        {
          "internalType": "address",
          "name": "_tokenB",
          "type": "address"
        },
        {
          "internalType": "uint256",
          "name": "_amountA",
          "type": "uint256"
        },
        {
          "internalType": "uint256",
          "name": "_amountB",
          "type": "uint256"
        }
      ],
      "name": "addLiquidity",
      "outputs": [],
      "stateMutability": "nonpayable",
      "type": "function"
    },
    {
      "inputs": [],
      "name": "owner",
      "outputs": [
        {
          "internalType": "address payable",
          "name": "",
          "type": "address"
        }
      ],
      "stateMutability": "view",
      "type": "function"
    },
    {
      "inputs": [],
      "name": "poolFee",
      "outputs": [
        {
          "internalType": "uint24",
          "name": "",
          "type": "uint24"
        }
      ],
      "stateMutability": "view",
      "type": "function"
    },
    {
      "inputs": [
        {
          "internalType": "address",
          "name": "_tokenA",
          "type": "address"
        },
        {
          "internalType": "address",
          "name": "_tokenB",
          "type": "address"
        }
      ],
      "name": "removeLiquidity",
      "outputs": [],
      "stateMutability": "nonpayable",
      "type": "function"
    },
    {
      "inputs": [
        {
          "internalType": "uint256",
          "name": "amountIn",
          "type": "uint256"
        },
        {
          "internalType": "address",
          "name": "originalToken",
          "type": "address"
        },
        {
          "internalType": "address",
          "name": "newToken",
          "type": "address"
        }
      ],
      "name": "swapExactInputSingle",
      "outputs": [
        {
          "internalType": "uint256",
          "name": "amountOut",
          "type": "uint256"
        }
      ],
      "stateMutability": "nonpayable",
      "type": "function"
    },
    {
      "inputs": [],
      "name": "swapRouter",
      "outputs": [
        {
          "internalType": "contract ISwapRouter",
          "name": "",
          "type": "address"
        }
      ],
      "stateMutability": "view",
      "type": "function"
    },
    {
      "inputs": [
        {
          "internalType": "address",
          "name": "token",
          "type": "address"
        },
        {
          "internalType": "address",
          "name": "recipient",
          "type": "address"
        },
        {
          "internalType": "uint256",
          "name": "amount",
          "type": "uint256"
        }
      ],
      "name": "transfer",
      "outputs": [],
      "stateMutability": "nonpayable",
      "type": "function"
    },
    {
      "inputs": [
        {
          "internalType": "uint256",
          "name": "amount",
          "type": "uint256"
        },
        {
          "internalType": "address",
          "name": "recipient",
          "type": "address"
        }
      ],
      "name": "withdraw",
      "outputs": [],
      "stateMutability": "nonpayable",
      "type": "function"
    },
    {
      "stateMutability": "payable",
      "type": "receive"
    }
  ],
  "bytecode": "0x608060405234801561001057600080fd5b50600080546001600160a01b0319163317905561156f806100326000396000f3fe6080604052600436106100bf5760003560e01c80638da5cb5b11610074578063c31c9c071161004e578063c31c9c0714610251578063cf6c62ea14610266578063db42c44d146102865761013b565b80638da5cb5b146101fc5780639cf38f7c14610211578063beabacc8146102315761013b565b8063089fe6aa116100a5578063089fe6aa146101825780633c75999f146101ad5780634ce4dca5146101cf5761013b565b8062f714ce146101405780630599d5f2146101625761013b565b3661013b57730d500b1d8e8ef31e21c99d1db9a6444d3adf127073ffffffffffffffffffffffffffffffffffffffff1663d0e30db0346040518263ffffffff1660e01b81526004016000604051808303818588803b15801561012057600080fd5b505af1158015610134573d6000803e3d6000fd5b5050505050005b600080fd5b34801561014c57600080fd5b5061016061015b366004611178565b6102a6565b005b34801561016e57600080fd5b5061016061017d366004611115565b610348565b34801561018e57600080fd5b506101976104e1565b6040516101a49190611524565b60405180910390f35b3480156101b957600080fd5b506101c26104e7565b6040516101a4919061122d565b3480156101db57600080fd5b506101ef6101ea36600461119c565b6104ff565b6040516101a49190611534565b34801561020857600080fd5b506101c261066e565b34801561021d57600080fd5b5061016061022c366004611058565b61068a565b34801561023d57600080fd5b5061016061024c366004611090565b610988565b34801561025d57600080fd5b506101c2610abf565b34801561027257600080fd5b506101606102813660046110d0565b610ad7565b34801561029257600080fd5b506101606102a1366004611115565b610d62565b60005473ffffffffffffffffffffffffffffffffffffffff163314610300576040517f08c379a00000000000000000000000000000000000000000000000000000000081526004016102f790611471565b60405180910390fd5b60405173ffffffffffffffffffffffffffffffffffffffff82169083156108fc029084906000818181858888f19350505050158015610343573d6000803e3d6000fd5b505050565b60005473ffffffffffffffffffffffffffffffffffffffff163314610399576040517f08c379a00000000000000000000000000000000000000000000000000000000081526004016102f7906113dd565b6040517f095ea7b300000000000000000000000000000000000000000000000000000000815273ffffffffffffffffffffffffffffffffffffffff83169063095ea7b39061040190738dff5e27ea6b7ac08ebfdf9eb090f32ee9a30fcf908590600401611318565b602060405180830381600087803b15801561041b57600080fd5b505af115801561042f573d6000803e3d6000fd5b505050506040513d601f19601f820116820180604052508101906104539190611140565b506040517fe8eda9df000000000000000000000000000000000000000000000000000000008152738dff5e27ea6b7ac08ebfdf9eb090f32ee9a30fcf9063e8eda9df906104ab9085908590309060009060040161136e565b600060405180830381600087803b1580156104c557600080fd5b505af11580156104d9573d6000803e3d6000fd5b505050505050565b610bb881565b738dff5e27ea6b7ac08ebfdf9eb090f32ee9a30fcf81565b6000805473ffffffffffffffffffffffffffffffffffffffff163314610551576040517f08c379a00000000000000000000000000000000000000000000000000000000081526004016102f7906113dd565b6105708373e592427a0aece92de3edee1f18e0157c0586156486610e59565b604080516101008101825273ffffffffffffffffffffffffffffffffffffffff808616825284166020820152610bb88183015230606082015242608082015260a08101869052600060c0820181905260e082015290517f414bf38900000000000000000000000000000000000000000000000000000000815273e592427a0aece92de3edee1f18e0157c058615649063414bf389906106139084906004016114a8565b602060405180830381600087803b15801561062d57600080fd5b505af1158015610641573d6000803e3d6000fd5b505050506040513d601f19601f820116820180604052508101906106659190611160565b95945050505050565b60005473ffffffffffffffffffffffffffffffffffffffff1681565b60005473ffffffffffffffffffffffffffffffffffffffff1633146106db576040517f08c379a00000000000000000000000000000000000000000000000000000000081526004016102f7906113dd565b6040517fe6a43905000000000000000000000000000000000000000000000000000000008152600090735757371414417b8c6caad45baef941abc7d3ab329063e6a4390590610730908690869060040161124e565b60206040518083038186803b15801561074857600080fd5b505afa15801561075c573d6000803e3d6000fd5b505050506040513d601f19601f820116820180604052508101906107809190611035565b905060008173ffffffffffffffffffffffffffffffffffffffff166370a08231306040518263ffffffff1660e01b81526004016107bd919061122d565b60206040518083038186803b1580156107d557600080fd5b505afa1580156107e9573d6000803e3d6000fd5b505050506040513d601f19601f8201168201806040525081019061080d9190611160565b6040517f095ea7b300000000000000000000000000000000000000000000000000000000815290915073ffffffffffffffffffffffffffffffffffffffff83169063095ea7b3906108789073a5e0829caced8ffdd4de3c43696c57f7d7a678ff908590600401611318565b602060405180830381600087803b15801561089257600080fd5b505af11580156108a6573d6000803e3d6000fd5b505050506040513d601f19601f820116820180604052508101906108ca9190611140565b506040517fbaa2abde000000000000000000000000000000000000000000000000000000008152600090819073a5e0829caced8ffdd4de3c43696c57f7d7a678ff9063baa2abde9061092d90899089908890600190819030904290600401611275565b6040805180830381600087803b15801561094657600080fd5b505af115801561095a573d6000803e3d6000fd5b505050506040513d601f19601f8201168201806040525081019061097e91906111dd565b5050505050505050565b600081116109c2576040517f08c379a00000000000000000000000000000000000000000000000000000000081526004016102f7906113a8565b60005473ffffffffffffffffffffffffffffffffffffffff163314610a13576040517f08c379a00000000000000000000000000000000000000000000000000000000081526004016102f790611414565b6040517fa9059cbb00000000000000000000000000000000000000000000000000000000815273ffffffffffffffffffffffffffffffffffffffff84169063a9059cbb90610a679085908590600401611318565b602060405180830381600087803b158015610a8157600080fd5b505af1158015610a95573d6000803e3d6000fd5b505050506040513d601f19601f82011682018060405250810190610ab99190611140565b50505050565b73e592427a0aece92de3edee1f18e0157c0586156481565b60005473ffffffffffffffffffffffffffffffffffffffff163314610b28576040517f08c379a00000000000000000000000000000000000000000000000000000000081526004016102f7906113dd565b6040517f095ea7b300000000000000000000000000000000000000000000000000000000815273ffffffffffffffffffffffffffffffffffffffff85169063095ea7b390610b909073a5e0829caced8ffdd4de3c43696c57f7d7a678ff908690600401611318565b602060405180830381600087803b158015610baa57600080fd5b505af1158015610bbe573d6000803e3d6000fd5b505050506040513d601f19601f82011682018060405250810190610be29190611140565b506040517f095ea7b300000000000000000000000000000000000000000000000000000000815273ffffffffffffffffffffffffffffffffffffffff84169063095ea7b390610c4b9073a5e0829caced8ffdd4de3c43696c57f7d7a678ff908590600401611318565b602060405180830381600087803b158015610c6557600080fd5b505af1158015610c79573d6000803e3d6000fd5b505050506040513d601f19601f82011682018060405250810190610c9d9190611140565b506040517fe8e337000000000000000000000000000000000000000000000000000000000081526000908190819073a5e0829caced8ffdd4de3c43696c57f7d7a678ff9063e8e3370090610d04908a908a908a908a906001908190309042906004016112c2565b606060405180830381600087803b158015610d1e57600080fd5b505af1158015610d32573d6000803e3d6000fd5b505050506040513d601f19601f82011682018060405250810190610d569190611200565b50505050505050505050565b60005473ffffffffffffffffffffffffffffffffffffffff163314610db3576040517f08c379a00000000000000000000000000000000000000000000000000000000081526004016102f7906113dd565b6040517f69328dec000000000000000000000000000000000000000000000000000000008152738dff5e27ea6b7ac08ebfdf9eb090f32ee9a30fcf906369328dec90610e079085908590309060040161133e565b602060405180830381600087803b158015610e2157600080fd5b505af1158015610e35573d6000803e3d6000fd5b505050506040513d601f19601f820116820180604052508101906103439190611160565b6040805173ffffffffffffffffffffffffffffffffffffffff8481166024830152604480830185905283518084039091018152606490920183526020820180517bffffffffffffffffffffffffffffffffffffffffffffffffffffffff167f095ea7b3000000000000000000000000000000000000000000000000000000001781529251825160009485949389169392918291908083835b60208310610f2e57805182527fffffffffffffffffffffffffffffffffffffffffffffffffffffffffffffffe09092019160209182019101610ef1565b6001836020036101000a0380198251168184511680821785525050505050509050019150506000604051808303816000865af19150503d8060008114610f90576040519150601f19603f3d011682016040523d82523d6000602084013e610f95565b606091505b5091509150818015610fc3575080511580610fc35750808060200190516020811015610fc057600080fd5b50515b61102e57604080517f08c379a000000000000000000000000000000000000000000000000000000000815260206004820152600260248201527f5341000000000000000000000000000000000000000000000000000000000000604482015290519081900360640190fd5b5050505050565b600060208284031215611046578081fd5b81516110518161153d565b9392505050565b6000806040838503121561106a578081fd5b82356110758161153d565b915060208301356110858161153d565b809150509250929050565b6000806000606084860312156110a4578081fd5b83356110af8161153d565b925060208401356110bf8161153d565b929592945050506040919091013590565b600080600080608085870312156110e5578081fd5b84356110f08161153d565b935060208501356111008161153d565b93969395505050506040820135916060013590565b60008060408385031215611127578182fd5b82356111328161153d565b946020939093013593505050565b600060208284031215611151578081fd5b81518015158114611051578182fd5b600060208284031215611171578081fd5b5051919050565b6000806040838503121561118a578182fd5b8235915060208301356110858161153d565b6000806000606084860312156111b0578283fd5b8335925060208401356111c28161153d565b915060408401356111d28161153d565b809150509250925092565b600080604083850312156111ef578182fd5b505080516020909101519092909150565b600080600060608486031215611214578283fd5b8351925060208401519150604084015190509250925092565b73ffffffffffffffffffffffffffffffffffffffff91909116815260200190565b73ffffffffffffffffffffffffffffffffffffffff92831681529116602082015260400190565b73ffffffffffffffffffffffffffffffffffffffff9788168152958716602087015260408601949094526060850192909252608084015290921660a082015260c081019190915260e00190565b73ffffffffffffffffffffffffffffffffffffffff9889168152968816602088015260408701959095526060860193909352608085019190915260a084015290921660c082015260e08101919091526101000190565b73ffffffffffffffffffffffffffffffffffffffff929092168252602082015260400190565b73ffffffffffffffffffffffffffffffffffffffff93841681526020810192909252909116604082015260600190565b73ffffffffffffffffffffffffffffffffffffffff948516815260208101939093529216604082015261ffff909116606082015260800190565b6020808252818101527f43616e6e6f74207472616e736665722030206f72206c65737320746f6b656e73604082015260600190565b6020808252600d908201527f4d757374206265206f776e657200000000000000000000000000000000000000604082015260600190565b60208082526022908201527f4f6e6c7920746865206f776e65722063616e207472616e7366657220746f6b6560408201527f6e73000000000000000000000000000000000000000000000000000000000000606082015260800190565b6020808252600d908201527f4d757374206265204f776e657200000000000000000000000000000000000000604082015260600190565b60006101008201905073ffffffffffffffffffffffffffffffffffffffff80845116835280602085015116602084015262ffffff60408501511660408401528060608501511660608401526080840151608084015260a084015160a084015260c084015160c08401528060e08501511660e08401525092915050565b62ffffff91909116815260200190565b90815260200190565b73ffffffffffffffffffffffffffffffffffffffff8116811461155f57600080fd5b5056fea164736f6c6343000706000a",
  "linkReferences": {},
  "deployedLinkReferences": {}
}